{
  "contractName": "SupplyChain",
  "abi": [
    {
      "constant": true,
      "inputs": [],
      "name": "owner",
      "outputs": [
        {
          "name": "",
          "type": "address"
        }
      ],
      "payable": false,
      "stateMutability": "view",
      "type": "function"
    },
    {
      "constant": true,
      "inputs": [
        {
          "name": "",
          "type": "uint256"
        }
      ],
      "name": "items",
      "outputs": [
        {
          "name": "name",
          "type": "string"
        },
        {
          "name": "sku",
          "type": "uint256"
        },
        {
          "name": "price",
          "type": "uint256"
        },
        {
          "name": "state",
          "type": "uint8"
        },
        {
          "name": "seller",
          "type": "address"
        },
        {
          "name": "buyer",
          "type": "address"
        }
      ],
      "payable": false,
      "stateMutability": "view",
      "type": "function"
    },
    {
      "inputs": [],
      "payable": false,
      "stateMutability": "nonpayable",
      "type": "constructor"
    },
    {
      "anonymous": false,
      "inputs": [
        {
          "indexed": false,
          "name": "sku",
          "type": "uint256"
        }
      ],
      "name": "LogForSale",
      "type": "event"
    },
    {
      "anonymous": false,
      "inputs": [
        {
          "indexed": false,
          "name": "sku",
          "type": "uint256"
        }
      ],
      "name": "LogSold",
      "type": "event"
    },
    {
      "anonymous": false,
      "inputs": [
        {
          "indexed": false,
          "name": "sku",
          "type": "uint256"
        }
      ],
      "name": "LogShipped",
      "type": "event"
    },
    {
      "anonymous": false,
      "inputs": [
        {
          "indexed": false,
          "name": "sku",
          "type": "uint256"
        }
      ],
      "name": "LogReceived",
      "type": "event"
    },
    {
      "constant": false,
      "inputs": [
        {
          "name": "_name",
          "type": "string"
        },
        {
          "name": "_price",
          "type": "uint256"
        }
      ],
      "name": "addItem",
      "outputs": [],
      "payable": false,
      "stateMutability": "nonpayable",
      "type": "function"
    },
    {
      "constant": false,
      "inputs": [
        {
          "name": "sku",
          "type": "uint256"
        }
      ],
      "name": "buyItem",
      "outputs": [],
      "payable": false,
      "stateMutability": "nonpayable",
      "type": "function"
    },
    {
      "constant": false,
      "inputs": [
        {
          "name": "sku",
          "type": "uint256"
        }
      ],
      "name": "shipItem",
      "outputs": [],
      "payable": false,
      "stateMutability": "nonpayable",
      "type": "function"
    },
    {
      "constant": false,
      "inputs": [
        {
          "name": "sku",
          "type": "uint256"
        }
      ],
      "name": "receiveItem",
      "outputs": [],
      "payable": false,
      "stateMutability": "nonpayable",
      "type": "function"
    },
    {
      "constant": true,
      "inputs": [
        {
          "name": "_sku",
          "type": "uint256"
        }
      ],
      "name": "fetchItem",
      "outputs": [
        {
          "name": "name",
          "type": "string"
        },
        {
          "name": "sku",
          "type": "uint256"
        },
        {
          "name": "price",
          "type": "uint256"
        },
        {
          "name": "state",
          "type": "uint256"
        },
        {
          "name": "seller",
          "type": "address"
        },
        {
          "name": "buyer",
          "type": "address"
        }
      ],
      "payable": false,
      "stateMutability": "view",
      "type": "function"
    }
  ],
  "bytecode": "0x608060405234801561001057600080fd5b50336000806101000a81548173ffffffffffffffffffffffffffffffffffffffff021916908373ffffffffffffffffffffffffffffffffffffffff16021790555061096c806100606000396000f300608060405260043610610083576000357c0100000000000000000000000000000000000000000000000000000000900463ffffffff16806362d6bbdf146100885780638da5cb5b146100fb578063a26be99914610152578063ad4b9cfb1461017f578063bfb231d2146102a0578063e7fb74c7146103cf578063f61c899a146103fc575b600080fd5b34801561009457600080fd5b506100f9600480360381019080803590602001908201803590602001908080601f016020809104026020016040519081016040528093929190818152602001838380828437820191505050505050919291929080359060200190929190505050610429565b005b34801561010757600080fd5b506101106105a1565b604051808273ffffffffffffffffffffffffffffffffffffffff1673ffffffffffffffffffffffffffffffffffffffff16815260200191505060405180910390f35b34801561015e57600080fd5b5061017d600480360381019080803590602001909291905050506105c6565b005b34801561018b57600080fd5b506101aa600480360381019080803590602001909291905050506105c9565b60405180806020018781526020018681526020018581526020018473ffffffffffffffffffffffffffffffffffffffff1673ffffffffffffffffffffffffffffffffffffffff1681526020018373ffffffffffffffffffffffffffffffffffffffff1673ffffffffffffffffffffffffffffffffffffffff168152602001828103825288818151815260200191508051906020019080838360005b83811015610260578082015181840152602081019050610245565b50505050905090810190601f16801561028d5780820380516001836020036101000a031916815260200191505b5097505050505050505060405180910390f35b3480156102ac57600080fd5b506102cb60048036038101908080359060200190929190505050610774565b60405180806020018781526020018681526020018560038111156102eb57fe5b60ff1681526020018473ffffffffffffffffffffffffffffffffffffffff1673ffffffffffffffffffffffffffffffffffffffff1681526020018373ffffffffffffffffffffffffffffffffffffffff1673ffffffffffffffffffffffffffffffffffffffff168152602001828103825288818151815260200191508051906020019080838360005b8381101561038f578082015181840152602081019050610374565b50505050905090810190601f1680156103bc5780820380516001836020036101000a031916815260200191505b5097505050505050505060405180910390f35b3480156103db57600080fd5b506103fa60048036038101908080359060200190929190505050610895565b005b34801561040857600080fd5b5061042760048036038101908080359060200190929190505050610898565b005b60c06040519081016040528083815260200160015481526020018281526020016000600381111561045657fe5b81526020013373ffffffffffffffffffffffffffffffffffffffff168152602001600073ffffffffffffffffffffffffffffffffffffffff1681525060026000600154815260200190815260200160002060008201518160000190805190602001906104c392919061089b565b50602082015181600101556040820151816002015560608201518160030160006101000a81548160ff021916908360038111156104fc57fe5b021790555060808201518160030160016101000a81548173ffffffffffffffffffffffffffffffffffffffff021916908373ffffffffffffffffffffffffffffffffffffffff16021790555060a08201518160040160006101000a81548173ffffffffffffffffffffffffffffffffffffffff021916908373ffffffffffffffffffffffffffffffffffffffff16021790555090505060018054016001819055505050565b6000809054906101000a900473ffffffffffffffffffffffffffffffffffffffff1681565b50565b60606000806000806000600260008881526020019081526020016000206000018054600181600116156101000203166002900480601f01602080910402602001604051908101604052809291908181526020018280546001816001161561010002031660029004801561067d5780601f106106525761010080835404028352916020019161067d565b820191906000526020600020905b81548152906001019060200180831161066057829003601f168201915b5050505050955060026000888152602001908152602001600020600101549450600260008881526020019081526020016000206002015493506002600088815260200190815260200160002060030160009054906101000a900460ff1660038111156106e557fe5b92506002600088815260200190815260200160002060030160019054906101000a900473ffffffffffffffffffffffffffffffffffffffff1691506002600088815260200190815260200160002060040160009054906101000a900473ffffffffffffffffffffffffffffffffffffffff16905085858585858595509550955095509550955091939550919395565b6002602052806000526040600020600091509050806000018054600181600116156101000203166002900480601f0160208091040260200160405190810160405280929190818152602001828054600181600116156101000203166002900480156108205780601f106107f557610100808354040283529160200191610820565b820191906000526020600020905b81548152906001019060200180831161080357829003601f168201915b5050505050908060010154908060020154908060030160009054906101000a900460ff16908060030160019054906101000a900473ffffffffffffffffffffffffffffffffffffffff16908060040160009054906101000a900473ffffffffffffffffffffffffffffffffffffffff16905086565b50565b50565b828054600181600116156101000203166002900490600052602060002090601f016020900481019282601f106108dc57805160ff191683800117855561090a565b8280016001018555821561090a579182015b828111156109095782518255916020019190600101906108ee565b5b509050610917919061091b565b5090565b61093d91905b80821115610939576000816000905550600101610921565b5090565b905600a165627a7a7230582013db8e50c2f1d077a0a00abe37d10c07f84bed4c0e2ec6f93c80f2f02a03b97c0029",
  "source": "pragma solidity ^0.4.23;\n\ncontract SupplyChain {\n  address public owner;\n  /* Add a variable called skuCount to track the most recent sku # */\n  uint skuCount;\n\n  mapping(uint => Item) public items;\n\n  /* Add a line that creates an enum called State. This should have 4 states\n    ForSale\n    Sold\n    Shipped\n    Received\n    (declaring them in this order is important for testing)\n  */\n  enum State {\n    ForSale, Sold, Shipped, Received\n  }\n\n  /* Create a struct named Item.\n    Here, add a name, sku, price, state, seller, and buyer\n    We've left you to figure out what the appropriate types are,\n    if you need help you can ask around :)\n  */\n  /* price: _price, state: State.ForSale, seller: msg.sender, buyer: 0}); */\n\n  struct Item {\n    string name;\n    uint sku; // might need to change this\n    uint price;\n    State state;\n    address seller;\n    address buyer;\n  }\n\n    event LogForSale(uint sku);\n    event LogSold(uint sku);\n    event LogShipped(uint sku);\n    event LogReceived(uint sku);\n\n/* Create a modifer that checks if the msg.sender is the owner of the contract */\n  /* modifier verify */\n\n  modifier verifyCaller (address _address) { require (msg.sender == _address); _;}\n\n  modifier paidEnough(uint _price) { require(msg.value >= _price); _;}\n  modifier checkValue(uint _sku) {\n    //refund them after pay for item (why it is before, _ checks for logic before func)\n    _;\n    uint _price = items[_sku].price;\n    uint amountToRefund = msg.value - _price;\n    items[_sku].buyer.transfer(amountToRefund);\n  }\n\n  /* For each of the following modifiers, use what you learned about modifiers\n   to give them functionality. For example, the forSale modifier should require\n   that the item with the given sku has the state ForSale. */\n  /* modifier forSale() {};\n  modifier sold() {};\n  modifier shipped() {};\n  modifier received() {}; */\n\n  constructor() public {\n    /* Here, set the owner as the person who instantiated the contract\n       and set your skuCount to 0. */\n    owner = msg.sender;\n  }\n\n  function addItem(string _name, uint _price) public {\n    /* emit ForSale(skuCount); */ // comment this back in\n    items[skuCount] = Item({name: _name, sku: skuCount, price: _price, state: State.ForSale, seller: msg.sender, buyer: 0});\n    skuCount = skuCount + 1;\n  }\n\n  /* Add a keyword so the function can be paid. This function should transfer money\n    to the seller, set the buyer as the person who called this transaction, and set the state\n    to Sold. Be careful, this function should use 3 modifiers to check if the item is for sale,\n    if the buyer paid enough, and check the value after the function is called to make sure the buyer is\n    refunded any excess ether sent. Remember to call the event associated with this function!*/\n\n  function buyItem(uint sku)\n    public\n  {}\n\n  /* Add 2 modifiers to check if the item is sold already, and that the person calling this function\n  is the seller. Change the state of the item to shipped. Remember to call the event associated with this function!*/\n  function shipItem(uint sku)\n    public\n  {}\n\n  /* Add 2 modifiers to check if the item is shipped already, and that the person calling this function\n  is the buyer. Change the state of the item to received. Remember to call the event associated with this function!*/\n  function receiveItem(uint sku)\n    public\n  {}\n\n  function fetchItem(uint _sku) public view returns (string name, uint sku, uint price, uint state, address seller, address buyer) {\n    name = items[_sku].name;\n    sku = items[_sku].sku;\n    price = items[_sku].price;\n    state = uint(items[_sku].state);\n    seller = items[_sku].seller;\n    buyer = items[_sku].buyer;\n    return (name, sku, price, state, seller, buyer);\n  }\n\n}\n",
  "sourcePath": "/Users/randallkanna/Documents/code/eth/supply-chain-contract/contracts/SupplyChain.sol",
  "compiler": {
    "name": "solc",
    "version": "0.4.23+commit.124ca40d.Emscripten.clang"
  },
  "schemaVersion": "2.0.0",
  "updatedAt": "2018-06-27T19:30:53.847Z"
}